{
  "contractName": "Phygital",
  "abi": [
    {
      "inputs": [],
      "stateMutability": "nonpayable",
      "type": "constructor"
    },
    {
      "anonymous": false,
      "inputs": [
        {
          "indexed": true,
          "internalType": "address",
          "name": "owner",
          "type": "address"
        },
        {
          "indexed": true,
          "internalType": "address",
          "name": "approved",
          "type": "address"
        },
        {
          "indexed": true,
          "internalType": "uint256",
          "name": "tokenId",
          "type": "uint256"
        }
      ],
      "name": "Approval",
      "type": "event"
    },
    {
      "anonymous": false,
      "inputs": [
        {
          "indexed": true,
          "internalType": "address",
          "name": "owner",
          "type": "address"
        },
        {
          "indexed": true,
          "internalType": "address",
          "name": "operator",
          "type": "address"
        },
        {
          "indexed": false,
          "internalType": "bool",
          "name": "approved",
          "type": "bool"
        }
      ],
      "name": "ApprovalForAll",
      "type": "event"
    },
    {
      "anonymous": false,
      "inputs": [
        {
          "indexed": true,
          "internalType": "address",
          "name": "from",
          "type": "address"
        },
        {
          "indexed": true,
          "internalType": "address",
          "name": "to",
          "type": "address"
        },
        {
          "indexed": true,
          "internalType": "uint256",
          "name": "tokenId",
          "type": "uint256"
        }
      ],
      "name": "Transfer",
      "type": "event"
    },
    {
      "inputs": [
        {
          "internalType": "address",
          "name": "to",
          "type": "address"
        },
        {
          "internalType": "uint256",
          "name": "tokenId",
          "type": "uint256"
        }
      ],
      "name": "approve",
      "outputs": [],
      "stateMutability": "nonpayable",
      "type": "function"
    },
    {
      "inputs": [
        {
          "internalType": "address",
          "name": "owner",
          "type": "address"
        }
      ],
      "name": "balanceOf",
      "outputs": [
        {
          "internalType": "uint256",
          "name": "",
          "type": "uint256"
        }
      ],
      "stateMutability": "view",
      "type": "function",
      "constant": true
    },
    {
      "inputs": [
        {
          "internalType": "uint256",
          "name": "tokenId",
          "type": "uint256"
        }
      ],
      "name": "getApproved",
      "outputs": [
        {
          "internalType": "address",
          "name": "",
          "type": "address"
        }
      ],
      "stateMutability": "view",
      "type": "function",
      "constant": true
    },
    {
      "inputs": [
        {
          "internalType": "address",
          "name": "owner",
          "type": "address"
        },
        {
          "internalType": "address",
          "name": "operator",
          "type": "address"
        }
      ],
      "name": "isApprovedForAll",
      "outputs": [
        {
          "internalType": "bool",
          "name": "",
          "type": "bool"
        }
      ],
      "stateMutability": "view",
      "type": "function",
      "constant": true
    },
    {
      "inputs": [],
      "name": "name",
      "outputs": [
        {
          "internalType": "string",
          "name": "",
          "type": "string"
        }
      ],
      "stateMutability": "view",
      "type": "function",
      "constant": true
    },
    {
      "inputs": [
        {
          "internalType": "uint256",
          "name": "tokenId",
          "type": "uint256"
        }
      ],
      "name": "ownerOf",
      "outputs": [
        {
          "internalType": "address",
          "name": "",
          "type": "address"
        }
      ],
      "stateMutability": "view",
      "type": "function",
      "constant": true
    },
    {
      "inputs": [
        {
          "internalType": "uint256",
          "name": "",
          "type": "uint256"
        }
      ],
      "name": "parts",
      "outputs": [
        {
          "internalType": "string",
          "name": "",
          "type": "string"
        }
      ],
      "stateMutability": "view",
      "type": "function",
      "constant": true
    },
    {
      "inputs": [
        {
          "internalType": "address",
          "name": "from",
          "type": "address"
        },
        {
          "internalType": "address",
          "name": "to",
          "type": "address"
        },
        {
          "internalType": "uint256",
          "name": "tokenId",
          "type": "uint256"
        }
      ],
      "name": "safeTransferFrom",
      "outputs": [],
      "stateMutability": "nonpayable",
      "type": "function"
    },
    {
      "inputs": [
        {
          "internalType": "address",
          "name": "from",
          "type": "address"
        },
        {
          "internalType": "address",
          "name": "to",
          "type": "address"
        },
        {
          "internalType": "uint256",
          "name": "tokenId",
          "type": "uint256"
        },
        {
          "internalType": "bytes",
          "name": "data",
          "type": "bytes"
        }
      ],
      "name": "safeTransferFrom",
      "outputs": [],
      "stateMutability": "nonpayable",
      "type": "function"
    },
    {
      "inputs": [
        {
          "internalType": "address",
          "name": "operator",
          "type": "address"
        },
        {
          "internalType": "bool",
          "name": "approved",
          "type": "bool"
        }
      ],
      "name": "setApprovalForAll",
      "outputs": [],
      "stateMutability": "nonpayable",
      "type": "function"
    },
    {
      "inputs": [],
      "name": "symbol",
      "outputs": [
        {
          "internalType": "string",
          "name": "",
          "type": "string"
        }
      ],
      "stateMutability": "view",
      "type": "function",
      "constant": true
    },
    {
      "inputs": [
        {
          "internalType": "uint256",
          "name": "index",
          "type": "uint256"
        }
      ],
      "name": "tokenByIndex",
      "outputs": [
        {
          "internalType": "uint256",
          "name": "",
          "type": "uint256"
        }
      ],
      "stateMutability": "view",
      "type": "function",
      "constant": true
    },
    {
      "inputs": [
        {
          "internalType": "address",
          "name": "owner",
          "type": "address"
        },
        {
          "internalType": "uint256",
          "name": "index",
          "type": "uint256"
        }
      ],
      "name": "tokenOfOwnerByIndex",
      "outputs": [
        {
          "internalType": "uint256",
          "name": "",
          "type": "uint256"
        }
      ],
      "stateMutability": "view",
      "type": "function",
      "constant": true
    },
    {
      "inputs": [
        {
          "internalType": "uint256",
          "name": "tokenId",
          "type": "uint256"
        }
      ],
      "name": "tokenURI",
      "outputs": [
        {
          "internalType": "string",
          "name": "",
          "type": "string"
        }
      ],
      "stateMutability": "view",
      "type": "function",
      "constant": true
    },
    {
      "inputs": [],
      "name": "totalSupply",
      "outputs": [
        {
          "internalType": "uint256",
          "name": "",
          "type": "uint256"
        }
      ],
      "stateMutability": "view",
      "type": "function",
      "constant": true
    },
    {
      "inputs": [
        {
          "internalType": "address",
          "name": "from",
          "type": "address"
        },
        {
          "internalType": "address",
          "name": "to",
          "type": "address"
        },
        {
          "internalType": "uint256",
          "name": "tokenId",
          "type": "uint256"
        }
      ],
      "name": "transferFrom",
      "outputs": [],
      "stateMutability": "nonpayable",
      "type": "function"
    },
    {
      "inputs": [
        {
          "internalType": "bytes4",
          "name": "interfaceId",
          "type": "bytes4"
        }
      ],
      "name": "supportsInterface",
      "outputs": [
        {
          "internalType": "bool",
          "name": "",
          "type": "bool"
        }
      ],
      "stateMutability": "view",
      "type": "function",
      "constant": true
    },
    {
      "inputs": [
        {
          "internalType": "string",
          "name": "_part",
          "type": "string"
        }
      ],
      "name": "mint",
      "outputs": [],
      "stateMutability": "nonpayable",
      "type": "function"
    }
  ],
  "bytecode": "0x60806040523480156200001157600080fd5b506040518060400160405280600881526020017f506879676974616c0000000000000000000000000000000000000000000000008152506040518060400160405280600481526020017f504859470000000000000000000000000000000000000000000000000000000081525081600090816200008f919062000324565b508060019081620000a1919062000324565b5050506200040b565b600081519050919050565b7f4e487b7100000000000000000000000000000000000000000000000000000000600052604160045260246000fd5b7f4e487b7100000000000000000000000000000000000000000000000000000000600052602260045260246000fd5b600060028204905060018216806200012c57607f821691505b602082108103620001425762000141620000e4565b5b50919050565b60008190508160005260206000209050919050565b60006020601f8301049050919050565b600082821b905092915050565b600060088302620001ac7fffffffffffffffffffffffffffffffffffffffffffffffffffffffffffffffff826200016d565b620001b886836200016d565b95508019841693508086168417925050509392505050565b6000819050919050565b6000819050919050565b600062000205620001ff620001f984620001d0565b620001da565b620001d0565b9050919050565b6000819050919050565b6200022183620001e4565b6200023962000230826200020c565b8484546200017a565b825550505050565b600090565b6200025062000241565b6200025d81848462000216565b505050565b5b8181101562000285576200027960008262000246565b60018101905062000263565b5050565b601f821115620002d4576200029e8162000148565b620002a9846200015d565b81016020851015620002b9578190505b620002d1620002c8856200015d565b83018262000262565b50505b505050565b600082821c905092915050565b6000620002f960001984600802620002d9565b1980831691505092915050565b6000620003148383620002e6565b9150826002028217905092915050565b6200032f82620000aa565b67ffffffffffffffff8111156200034b576200034a620000b5565b5b62000357825462000113565b6200036482828562000289565b600060209050601f8311600181146200039c576000841562000387578287015190505b62000393858262000306565b86555062000403565b601f198416620003ac8662000148565b60005b82811015620003d657848901518255600182019150602085019450602081019050620003af565b86831015620003f65784890151620003f2601f891682620002e6565b8355505b6001600288020188555050505b505050505050565b613150806200041b6000396000f3fe608060405234801561001057600080fd5b50600436106101165760003560e01c80636352211e116100a2578063b88d4fde11610071578063b88d4fde14610305578063c87b56dd14610321578063c9eb466214610351578063d85d3d2714610381578063e985e9c51461039d57610116565b80636352211e1461026b57806370a082311461029b57806395d89b41146102cb578063a22cb465146102e957610116565b806318160ddd116100e957806318160ddd146101b557806323b872dd146101d35780632f745c59146101ef57806342842e0e1461021f5780634f6ccce71461023b57610116565b806301ffc9a71461011b57806306fdde031461014b578063081812fc14610169578063095ea7b314610199575b600080fd5b61013560048036038101906101309190611e21565b6103cd565b6040516101429190611e69565b60405180910390f35b6101536103df565b6040516101609190611f14565b60405180910390f35b610183600480360381019061017e9190611f6c565b610471565b6040516101909190611fda565b60405180910390f35b6101b360048036038101906101ae9190612021565b6104b7565b005b6101bd6105ce565b6040516101ca9190612070565b60405180910390f35b6101ed60048036038101906101e8919061208b565b6105db565b005b61020960048036038101906102049190612021565b61063b565b6040516102169190612070565b60405180910390f35b6102396004803603810190610234919061208b565b6106e0565b005b61025560048036038101906102509190611f6c565b610700565b6040516102629190612070565b60405180910390f35b61028560048036038101906102809190611f6c565b610771565b6040516102929190611fda565b60405180910390f35b6102b560048036038101906102b091906120de565b610822565b6040516102c29190612070565b60405180910390f35b6102d36108d9565b6040516102e09190611f14565b60405180910390f35b61030360048036038101906102fe9190612137565b61096b565b005b61031f600480360381019061031a91906122ac565b610981565b005b61033b60048036038101906103369190611f6c565b6109e3565b6040516103489190611f14565b60405180910390f35b61036b60048036038101906103669190611f6c565b610a4b565b6040516103789190611f14565b60405180910390f35b61039b600480360381019061039691906123d0565b610af7565b005b6103b760048036038101906103b29190612419565b610b50565b6040516103c49190611e69565b60405180910390f35b60006103d882610be4565b9050919050565b6060600080546103ee90612488565b80601f016020809104026020016040519081016040528092919081815260200182805461041a90612488565b80156104675780601f1061043c57610100808354040283529160200191610467565b820191906000526020600020905b81548152906001019060200180831161044a57829003601f168201915b5050505050905090565b600061047c82610c5e565b6004600083815260200190815260200160002060009054906101000a900473ffffffffffffffffffffffffffffffffffffffff169050919050565b60006104c282610771565b90508073ffffffffffffffffffffffffffffffffffffffff168373ffffffffffffffffffffffffffffffffffffffff1603610532576040517f08c379a00000000000000000000000000000000000000000000000000000000081526004016105299061252b565b60405180910390fd5b8073ffffffffffffffffffffffffffffffffffffffff16610551610ca9565b73ffffffffffffffffffffffffffffffffffffffff161480610580575061057f8161057a610ca9565b610b50565b5b6105bf576040517f08c379a00000000000000000000000000000000000000000000000000000000081526004016105b6906125bd565b60405180910390fd5b6105c98383610cb1565b505050565b6000600880549050905090565b6105ec6105e6610ca9565b82610d6a565b61062b576040517f08c379a00000000000000000000000000000000000000000000000000000000081526004016106229061264f565b60405180910390fd5b610636838383610dff565b505050565b600061064683610822565b8210610687576040517f08c379a000000000000000000000000000000000000000000000000000000000815260040161067e906126e1565b60405180910390fd5b600660008473ffffffffffffffffffffffffffffffffffffffff1673ffffffffffffffffffffffffffffffffffffffff168152602001908152602001600020600083815260200190815260200160002054905092915050565b6106fb83838360405180602001604052806000815250610981565b505050565b600061070a6105ce565b821061074b576040517f08c379a000000000000000000000000000000000000000000000000000000000815260040161074290612773565b60405180910390fd5b6008828154811061075f5761075e612793565b5b90600052602060002001549050919050565b6000806002600084815260200190815260200160002060009054906101000a900473ffffffffffffffffffffffffffffffffffffffff169050600073ffffffffffffffffffffffffffffffffffffffff168173ffffffffffffffffffffffffffffffffffffffff1603610819576040517f08c379a00000000000000000000000000000000000000000000000000000000081526004016108109061280e565b60405180910390fd5b80915050919050565b60008073ffffffffffffffffffffffffffffffffffffffff168273ffffffffffffffffffffffffffffffffffffffff1603610892576040517f08c379a0000000000000000000000000000000000000000000000000000000008152600401610889906128a0565b60405180910390fd5b600360008373ffffffffffffffffffffffffffffffffffffffff1673ffffffffffffffffffffffffffffffffffffffff168152602001908152602001600020549050919050565b6060600180546108e890612488565b80601f016020809104026020016040519081016040528092919081815260200182805461091490612488565b80156109615780601f1061093657610100808354040283529160200191610961565b820191906000526020600020905b81548152906001019060200180831161094457829003601f168201915b5050505050905090565b61097d610976610ca9565b8383611090565b5050565b61099261098c610ca9565b83610d6a565b6109d1576040517f08c379a00000000000000000000000000000000000000000000000000000000081526004016109c89061264f565b60405180910390fd5b6109dd848484846111fc565b50505050565b60606109ee82610c5e565b60006109f8611258565b90506000815111610a185760405180602001604052806000815250610a43565b80610a228461126f565b604051602001610a339291906128fc565b6040516020818303038152906040525b915050919050565b600a8181548110610a5b57600080fd5b906000526020600020016000915090508054610a7690612488565b80601f0160208091040260200160405190810160405280929190818152602001828054610aa290612488565b8015610aef5780601f10610ac457610100808354040283529160200191610aef565b820191906000526020600020905b815481529060010190602001808311610ad257829003601f168201915b505050505081565b600a81908060018154018082558091505060019003906000526020600020016000909190919091509081610b2b9190612acc565b5060006001600a80549050610b409190612bcd565b9050610b4c33826113cf565b5050565b6000600560008473ffffffffffffffffffffffffffffffffffffffff1673ffffffffffffffffffffffffffffffffffffffff16815260200190815260200160002060008373ffffffffffffffffffffffffffffffffffffffff1673ffffffffffffffffffffffffffffffffffffffff16815260200190815260200160002060009054906101000a900460ff16905092915050565b60007f780e9d63000000000000000000000000000000000000000000000000000000007bffffffffffffffffffffffffffffffffffffffffffffffffffffffff1916827bffffffffffffffffffffffffffffffffffffffffffffffffffffffff19161480610c575750610c56826113ed565b5b9050919050565b610c67816114cf565b610ca6576040517f08c379a0000000000000000000000000000000000000000000000000000000008152600401610c9d9061280e565b60405180910390fd5b50565b600033905090565b816004600083815260200190815260200160002060006101000a81548173ffffffffffffffffffffffffffffffffffffffff021916908373ffffffffffffffffffffffffffffffffffffffff160217905550808273ffffffffffffffffffffffffffffffffffffffff16610d2483610771565b73ffffffffffffffffffffffffffffffffffffffff167f8c5be1e5ebec7d5bd14f71427d1e84f3dd0314c0f7b2291e5b200ac8c7c3b92560405160405180910390a45050565b600080610d7683610771565b90508073ffffffffffffffffffffffffffffffffffffffff168473ffffffffffffffffffffffffffffffffffffffff161480610db85750610db78185610b50565b5b80610df657508373ffffffffffffffffffffffffffffffffffffffff16610dde84610471565b73ffffffffffffffffffffffffffffffffffffffff16145b91505092915050565b8273ffffffffffffffffffffffffffffffffffffffff16610e1f82610771565b73ffffffffffffffffffffffffffffffffffffffff1614610e75576040517f08c379a0000000000000000000000000000000000000000000000000000000008152600401610e6c90612c73565b60405180910390fd5b600073ffffffffffffffffffffffffffffffffffffffff168273ffffffffffffffffffffffffffffffffffffffff1603610ee4576040517f08c379a0000000000000000000000000000000000000000000000000000000008152600401610edb90612d05565b60405180910390fd5b610eef83838361153b565b6004600082815260200190815260200160002060006101000a81549073ffffffffffffffffffffffffffffffffffffffff02191690556001600360008573ffffffffffffffffffffffffffffffffffffffff1673ffffffffffffffffffffffffffffffffffffffff1681526020019081526020016000206000828254610f759190612bcd565b925050819055506001600360008473ffffffffffffffffffffffffffffffffffffffff1673ffffffffffffffffffffffffffffffffffffffff1681526020019081526020016000206000828254610fcc9190612d25565b92505081905550816002600083815260200190815260200160002060006101000a81548173ffffffffffffffffffffffffffffffffffffffff021916908373ffffffffffffffffffffffffffffffffffffffff160217905550808273ffffffffffffffffffffffffffffffffffffffff168473ffffffffffffffffffffffffffffffffffffffff167fddf252ad1be2c89b69c2b068fc378daa952ba7f163c4a11628f55a4df523b3ef60405160405180910390a461108b83838361154b565b505050565b8173ffffffffffffffffffffffffffffffffffffffff168373ffffffffffffffffffffffffffffffffffffffff16036110fe576040517f08c379a00000000000000000000000000000000000000000000000000000000081526004016110f590612da5565b60405180910390fd5b80600560008573ffffffffffffffffffffffffffffffffffffffff1673ffffffffffffffffffffffffffffffffffffffff16815260200190815260200160002060008473ffffffffffffffffffffffffffffffffffffffff1673ffffffffffffffffffffffffffffffffffffffff16815260200190815260200160002060006101000a81548160ff0219169083151502179055508173ffffffffffffffffffffffffffffffffffffffff168373ffffffffffffffffffffffffffffffffffffffff167f17307eab39ab6107e8899845ad3d59bd9653f200f220920489ca2b5937696c31836040516111ef9190611e69565b60405180910390a3505050565b611207848484610dff565b61121384848484611550565b611252576040517f08c379a000000000000000000000000000000000000000000000000000000000815260040161124990612e37565b60405180910390fd5b50505050565b606060405180602001604052806000815250905090565b6060600082036112b6576040518060400160405280600181526020017f300000000000000000000000000000000000000000000000000000000000000081525090506113ca565b600082905060005b600082146112e85780806112d190612e57565b915050600a826112e19190612ece565b91506112be565b60008167ffffffffffffffff81111561130457611303612181565b5b6040519080825280601f01601f1916602001820160405280156113365781602001600182028036833780820191505090505b5090505b600085146113c35760018261134f9190612bcd565b9150600a8561135e9190612eff565b603061136a9190612d25565b60f81b8183815181106113805761137f612793565b5b60200101907effffffffffffffffffffffffffffffffffffffffffffffffffffffffffffff1916908160001a905350600a856113bc9190612ece565b945061133a565b8093505050505b919050565b6113e98282604051806020016040528060008152506116d7565b5050565b60007f80ac58cd000000000000000000000000000000000000000000000000000000007bffffffffffffffffffffffffffffffffffffffffffffffffffffffff1916827bffffffffffffffffffffffffffffffffffffffffffffffffffffffff191614806114b857507f5b5e139f000000000000000000000000000000000000000000000000000000007bffffffffffffffffffffffffffffffffffffffffffffffffffffffff1916827bffffffffffffffffffffffffffffffffffffffffffffffffffffffff1916145b806114c857506114c782611732565b5b9050919050565b60008073ffffffffffffffffffffffffffffffffffffffff166002600084815260200190815260200160002060009054906101000a900473ffffffffffffffffffffffffffffffffffffffff1673ffffffffffffffffffffffffffffffffffffffff1614159050919050565b61154683838361179c565b505050565b505050565b60006115718473ffffffffffffffffffffffffffffffffffffffff166118ae565b156116ca578373ffffffffffffffffffffffffffffffffffffffff1663150b7a0261159a610ca9565b8786866040518563ffffffff1660e01b81526004016115bc9493929190612f85565b6020604051808303816000875af19250505080156115f857506040513d601f19601f820116820180604052508101906115f59190612fe6565b60015b61167a573d8060008114611628576040519150601f19603f3d011682016040523d82523d6000602084013e61162d565b606091505b506000815103611672576040517f08c379a000000000000000000000000000000000000000000000000000000000815260040161166990612e37565b60405180910390fd5b805181602001fd5b63150b7a0260e01b7bffffffffffffffffffffffffffffffffffffffffffffffffffffffff1916817bffffffffffffffffffffffffffffffffffffffffffffffffffffffff1916149150506116cf565b600190505b949350505050565b6116e183836118d1565b6116ee6000848484611550565b61172d576040517f08c379a000000000000000000000000000000000000000000000000000000000815260040161172490612e37565b60405180910390fd5b505050565b60007f01ffc9a7000000000000000000000000000000000000000000000000000000007bffffffffffffffffffffffffffffffffffffffffffffffffffffffff1916827bffffffffffffffffffffffffffffffffffffffffffffffffffffffff1916149050919050565b6117a7838383611aaa565b600073ffffffffffffffffffffffffffffffffffffffff168373ffffffffffffffffffffffffffffffffffffffff16036117e9576117e481611aaf565b611828565b8173ffffffffffffffffffffffffffffffffffffffff168373ffffffffffffffffffffffffffffffffffffffff1614611827576118268382611af8565b5b5b600073ffffffffffffffffffffffffffffffffffffffff168273ffffffffffffffffffffffffffffffffffffffff160361186a5761186581611c65565b6118a9565b8273ffffffffffffffffffffffffffffffffffffffff168273ffffffffffffffffffffffffffffffffffffffff16146118a8576118a78282611d36565b5b5b505050565b6000808273ffffffffffffffffffffffffffffffffffffffff163b119050919050565b600073ffffffffffffffffffffffffffffffffffffffff168273ffffffffffffffffffffffffffffffffffffffff1603611940576040517f08c379a00000000000000000000000000000000000000000000000000000000081526004016119379061305f565b60405180910390fd5b611949816114cf565b15611989576040517f08c379a0000000000000000000000000000000000000000000000000000000008152600401611980906130cb565b60405180910390fd5b6119956000838361153b565b6001600360008473ffffffffffffffffffffffffffffffffffffffff1673ffffffffffffffffffffffffffffffffffffffff16815260200190815260200160002060008282546119e59190612d25565b92505081905550816002600083815260200190815260200160002060006101000a81548173ffffffffffffffffffffffffffffffffffffffff021916908373ffffffffffffffffffffffffffffffffffffffff160217905550808273ffffffffffffffffffffffffffffffffffffffff16600073ffffffffffffffffffffffffffffffffffffffff167fddf252ad1be2c89b69c2b068fc378daa952ba7f163c4a11628f55a4df523b3ef60405160405180910390a4611aa66000838361154b565b5050565b505050565b6008805490506009600083815260200190815260200160002081905550600881908060018154018082558091505060019003906000526020600020016000909190919091505550565b60006001611b0584610822565b611b0f9190612bcd565b9050600060076000848152602001908152602001600020549050818114611bf4576000600660008673ffffffffffffffffffffffffffffffffffffffff1673ffffffffffffffffffffffffffffffffffffffff168152602001908152602001600020600084815260200190815260200160002054905080600660008773ffffffffffffffffffffffffffffffffffffffff1673ffffffffffffffffffffffffffffffffffffffff168152602001908152602001600020600084815260200190815260200160002081905550816007600083815260200190815260200160002081905550505b6007600084815260200190815260200160002060009055600660008573ffffffffffffffffffffffffffffffffffffffff1673ffffffffffffffffffffffffffffffffffffffff16815260200190815260200160002060008381526020019081526020016000206000905550505050565b60006001600880549050611c799190612bcd565b9050600060096000848152602001908152602001600020549050600060088381548110611ca957611ca8612793565b5b906000526020600020015490508060088381548110611ccb57611cca612793565b5b906000526020600020018190555081600960008381526020019081526020016000208190555060096000858152602001908152602001600020600090556008805480611d1a57611d196130eb565b5b6001900381819060005260206000200160009055905550505050565b6000611d4183610822565b905081600660008573ffffffffffffffffffffffffffffffffffffffff1673ffffffffffffffffffffffffffffffffffffffff168152602001908152602001600020600083815260200190815260200160002081905550806007600084815260200190815260200160002081905550505050565b6000604051905090565b600080fd5b600080fd5b60007fffffffff0000000000000000000000000000000000000000000000000000000082169050919050565b611dfe81611dc9565b8114611e0957600080fd5b50565b600081359050611e1b81611df5565b92915050565b600060208284031215611e3757611e36611dbf565b5b6000611e4584828501611e0c565b91505092915050565b60008115159050919050565b611e6381611e4e565b82525050565b6000602082019050611e7e6000830184611e5a565b92915050565b600081519050919050565b600082825260208201905092915050565b60005b83811015611ebe578082015181840152602081019050611ea3565b60008484015250505050565b6000601f19601f8301169050919050565b6000611ee682611e84565b611ef08185611e8f565b9350611f00818560208601611ea0565b611f0981611eca565b840191505092915050565b60006020820190508181036000830152611f2e8184611edb565b905092915050565b6000819050919050565b611f4981611f36565b8114611f5457600080fd5b50565b600081359050611f6681611f40565b92915050565b600060208284031215611f8257611f81611dbf565b5b6000611f9084828501611f57565b91505092915050565b600073ffffffffffffffffffffffffffffffffffffffff82169050919050565b6000611fc482611f99565b9050919050565b611fd481611fb9565b82525050565b6000602082019050611fef6000830184611fcb565b92915050565b611ffe81611fb9565b811461200957600080fd5b50565b60008135905061201b81611ff5565b92915050565b6000806040838503121561203857612037611dbf565b5b60006120468582860161200c565b925050602061205785828601611f57565b9150509250929050565b61206a81611f36565b82525050565b60006020820190506120856000830184612061565b92915050565b6000806000606084860312156120a4576120a3611dbf565b5b60006120b28682870161200c565b93505060206120c38682870161200c565b92505060406120d486828701611f57565b9150509250925092565b6000602082840312156120f4576120f3611dbf565b5b60006121028482850161200c565b91505092915050565b61211481611e4e565b811461211f57600080fd5b50565b6000813590506121318161210b565b92915050565b6000806040838503121561214e5761214d611dbf565b5b600061215c8582860161200c565b925050602061216d85828601612122565b9150509250929050565b600080fd5b600080fd5b7f4e487b7100000000000000000000000000000000000000000000000000000000600052604160045260246000fd5b6121b982611eca565b810181811067ffffffffffffffff821117156121d8576121d7612181565b5b80604052505050565b60006121eb611db5565b90506121f782826121b0565b919050565b600067ffffffffffffffff82111561221757612216612181565b5b61222082611eca565b9050602081019050919050565b82818337600083830152505050565b600061224f61224a846121fc565b6121e1565b90508281526020810184848401111561226b5761226a61217c565b5b61227684828561222d565b509392505050565b600082601f83011261229357612292612177565b5b81356122a384826020860161223c565b91505092915050565b600080600080608085870312156122c6576122c5611dbf565b5b60006122d48782880161200c565b94505060206122e58782880161200c565b93505060406122f687828801611f57565b925050606085013567ffffffffffffffff81111561231757612316611dc4565b5b6123238782880161227e565b91505092959194509250565b600067ffffffffffffffff82111561234a57612349612181565b5b61235382611eca565b9050602081019050919050565b600061237361236e8461232f565b6121e1565b90508281526020810184848401111561238f5761238e61217c565b5b61239a84828561222d565b509392505050565b600082601f8301126123b7576123b6612177565b5b81356123c7848260208601612360565b91505092915050565b6000602082840312156123e6576123e5611dbf565b5b600082013567ffffffffffffffff81111561240457612403611dc4565b5b612410848285016123a2565b91505092915050565b600080604083850312156124305761242f611dbf565b5b600061243e8582860161200c565b925050602061244f8582860161200c565b9150509250929050565b7f4e487b7100000000000000000000000000000000000000000000000000000000600052602260045260246000fd5b600060028204905060018216806124a057607f821691505b6020821081036124b3576124b2612459565b5b50919050565b7f4552433732313a20617070726f76616c20746f2063757272656e74206f776e6560008201527f7200000000000000000000000000000000000000000000000000000000000000602082015250565b6000612515602183611e8f565b9150612520826124b9565b604082019050919050565b6000602082019050818103600083015261254481612508565b9050919050565b7f4552433732313a20617070726f76652063616c6c6572206973206e6f7420746f60008201527f6b656e206f776e6572206f7220617070726f76656420666f7220616c6c000000602082015250565b60006125a7603d83611e8f565b91506125b28261254b565b604082019050919050565b600060208201905081810360008301526125d68161259a565b9050919050565b7f4552433732313a2063616c6c6572206973206e6f7420746f6b656e206f776e6560008201527f72206f7220617070726f76656400000000000000000000000000000000000000602082015250565b6000612639602d83611e8f565b9150612644826125dd565b604082019050919050565b600060208201905081810360008301526126688161262c565b9050919050565b7f455243373231456e756d657261626c653a206f776e657220696e646578206f7560008201527f74206f6620626f756e6473000000000000000000000000000000000000000000602082015250565b60006126cb602b83611e8f565b91506126d68261266f565b604082019050919050565b600060208201905081810360008301526126fa816126be565b9050919050565b7f455243373231456e756d657261626c653a20676c6f62616c20696e646578206f60008201527f7574206f6620626f756e64730000000000000000000000000000000000000000602082015250565b600061275d602c83611e8f565b915061276882612701565b604082019050919050565b6000602082019050818103600083015261278c81612750565b9050919050565b7f4e487b7100000000000000000000000000000000000000000000000000000000600052603260045260246000fd5b7f4552433732313a20696e76616c696420746f6b656e2049440000000000000000600082015250565b60006127f8601883611e8f565b9150612803826127c2565b602082019050919050565b60006020820190508181036000830152612827816127eb565b9050919050565b7f4552433732313a2061646472657373207a65726f206973206e6f74206120766160008201527f6c6964206f776e65720000000000000000000000000000000000000000000000602082015250565b600061288a602983611e8f565b91506128958261282e565b604082019050919050565b600060208201905081810360008301526128b98161287d565b9050919050565b600081905092915050565b60006128d682611e84565b6128e081856128c0565b93506128f0818560208601611ea0565b80840191505092915050565b600061290882856128cb565b915061291482846128cb565b91508190509392505050565b60008190508160005260206000209050919050565b60006020601f8301049050919050565b600082821b905092915050565b6000600883026129827fffffffffffffffffffffffffffffffffffffffffffffffffffffffffffffffff82612945565b61298c8683612945565b95508019841693508086168417925050509392505050565b6000819050919050565b60006129c96129c46129bf84611f36565b6129a4565b611f36565b9050919050565b6000819050919050565b6129e3836129ae565b6129f76129ef826129d0565b848454612952565b825550505050565b600090565b612a0c6129ff565b612a178184846129da565b505050565b5b81811015612a3b57612a30600082612a04565b600181019050612a1d565b5050565b601f821115612a8057612a5181612920565b612a5a84612935565b81016020851015612a69578190505b612a7d612a7585612935565b830182612a1c565b50505b505050565b600082821c905092915050565b6000612aa360001984600802612a85565b1980831691505092915050565b6000612abc8383612a92565b9150826002028217905092915050565b612ad582611e84565b67ffffffffffffffff811115612aee57612aed612181565b5b612af88254612488565b612b03828285612a3f565b600060209050601f831160018114612b365760008415612b24578287015190505b612b2e8582612ab0565b865550612b96565b601f198416612b4486612920565b60005b82811015612b6c57848901518255600182019150602085019450602081019050612b47565b86831015612b895784890151612b85601f891682612a92565b8355505b6001600288020188555050505b505050505050565b7f4e487b7100000000000000000000000000000000000000000000000000000000600052601160045260246000fd5b6000612bd882611f36565b9150612be383611f36565b9250828203905081811115612bfb57612bfa612b9e565b5b92915050565b7f4552433732313a207472616e736665722066726f6d20696e636f72726563742060008201527f6f776e6572000000000000000000000000000000000000000000000000000000602082015250565b6000612c5d602583611e8f565b9150612c6882612c01565b604082019050919050565b60006020820190508181036000830152612c8c81612c50565b9050919050565b7f4552433732313a207472616e7366657220746f20746865207a65726f2061646460008201527f7265737300000000000000000000000000000000000000000000000000000000602082015250565b6000612cef602483611e8f565b9150612cfa82612c93565b604082019050919050565b60006020820190508181036000830152612d1e81612ce2565b9050919050565b6000612d3082611f36565b9150612d3b83611f36565b9250828201905080821115612d5357612d52612b9e565b5b92915050565b7f4552433732313a20617070726f766520746f2063616c6c657200000000000000600082015250565b6000612d8f601983611e8f565b9150612d9a82612d59565b602082019050919050565b60006020820190508181036000830152612dbe81612d82565b9050919050565b7f4552433732313a207472616e7366657220746f206e6f6e20455243373231526560008201527f63656976657220696d706c656d656e7465720000000000000000000000000000602082015250565b6000612e21603283611e8f565b9150612e2c82612dc5565b604082019050919050565b60006020820190508181036000830152612e5081612e14565b9050919050565b6000612e6282611f36565b91507fffffffffffffffffffffffffffffffffffffffffffffffffffffffffffffffff8203612e9457612e93612b9e565b5b600182019050919050565b7f4e487b7100000000000000000000000000000000000000000000000000000000600052601260045260246000fd5b6000612ed982611f36565b9150612ee483611f36565b925082612ef457612ef3612e9f565b5b828204905092915050565b6000612f0a82611f36565b9150612f1583611f36565b925082612f2557612f24612e9f565b5b828206905092915050565b600081519050919050565b600082825260208201905092915050565b6000612f5782612f30565b612f618185612f3b565b9350612f71818560208601611ea0565b612f7a81611eca565b840191505092915050565b6000608082019050612f9a6000830187611fcb565b612fa76020830186611fcb565b612fb46040830185612061565b8181036060830152612fc68184612f4c565b905095945050505050565b600081519050612fe081611df5565b92915050565b600060208284031215612ffc57612ffb611dbf565b5b600061300a84828501612fd1565b91505092915050565b7f4552433732313a206d696e7420746f20746865207a65726f2061646472657373600082015250565b6000613049602083611e8f565b915061305482613013565b602082019050919050565b600060208201905081810360008301526130788161303c565b9050919050565b7f4552433732313a20746f6b656e20616c7265616479206d696e74656400000000600082015250565b60006130b5601c83611e8f565b91506130c08261307f565b602082019050919050565b600060208201905081810360008301526130e4816130a8565b9050919050565b7f4e487b7100000000000000000000000000000000000000000000000000000000600052603160045260246000fdfea264697066735822122085cea5c578ecaad18928047b32901a4712c9efc414f147c9f224e0fccc69d9bb64736f6c63430008100033",
  "immutableReferences": {},
  "source": "// SPDX-License-Identifier: MIT\r\npragma solidity ^0.8.16;\r\n\r\nimport \"./token/ERC721/extensions/ERC721enumerable.sol\";\r\n\r\ncontract Phygital is ERC721, ERC721Enumerable {\r\n    string[] public parts;\r\n    constructor() ERC721(\"Phygital\", \"PHYG\") {\r\n    }\r\n\r\n    // The following functions are overrides required by Solidity.\r\n    function _beforeTokenTransfer(address from, address to, uint256 tokenId)\r\n        internal\r\n        override(ERC721, ERC721Enumerable)\r\n    {\r\n        super._beforeTokenTransfer(from, to, tokenId);\r\n    }\r\n\r\n    function supportsInterface(bytes4 interfaceId)\r\n        public\r\n        view\r\n        override(ERC721, ERC721Enumerable)\r\n        returns (bool)\r\n    {\r\n        return super.supportsInterface(interfaceId);\r\n    }\r\n\r\n    function mint(string memory _part) public {\r\n        parts.push(_part);\r\n        uint _id = parts.length - 1;\r\n        _safeMint(msg.sender, _id);\r\n    }\r\n}",
  "sourcePath": "C:\\Users\\Maxime\\Documents\\phygital\\contracts\\Phygital.sol",
  "compiler": {
    "name": "solc",
    "version": "0.8.16+commit.07a7930e.Emscripten.clang"
  },
  "schemaVersion": "3.4.9",
  "updatedAt": "2022-08-18T07:13:28.627Z",
  "networkType": "ethereum",
  "devdoc": {
    "kind": "dev",
    "methods": {
      "approve(address,uint256)": {
        "details": "See {IERC721-approve}."
      },
      "balanceOf(address)": {
        "details": "See {IERC721-balanceOf}."
      },
      "getApproved(uint256)": {
        "details": "See {IERC721-getApproved}."
      },
      "isApprovedForAll(address,address)": {
        "details": "See {IERC721-isApprovedForAll}."
      },
      "name()": {
        "details": "See {IERC721Metadata-name}."
      },
      "ownerOf(uint256)": {
        "details": "See {IERC721-ownerOf}."
      },
      "safeTransferFrom(address,address,uint256)": {
        "details": "See {IERC721-safeTransferFrom}."
      },
      "safeTransferFrom(address,address,uint256,bytes)": {
        "details": "See {IERC721-safeTransferFrom}."
      },
      "setApprovalForAll(address,bool)": {
        "details": "See {IERC721-setApprovalForAll}."
      },
      "symbol()": {
        "details": "See {IERC721Metadata-symbol}."
      },
      "tokenByIndex(uint256)": {
        "details": "See {IERC721Enumerable-tokenByIndex}."
      },
      "tokenOfOwnerByIndex(address,uint256)": {
        "details": "See {IERC721Enumerable-tokenOfOwnerByIndex}."
      },
      "tokenURI(uint256)": {
        "details": "See {IERC721Metadata-tokenURI}."
      },
      "totalSupply()": {
        "details": "See {IERC721Enumerable-totalSupply}."
      },
      "transferFrom(address,address,uint256)": {
        "details": "See {IERC721-transferFrom}."
      }
    },
    "version": 1
  },
  "userdoc": {
    "kind": "user",
    "methods": {},
    "version": 1
  }
}